:100000000C946B000C9493000C9493000C9493004C
:100010000C9493000C9493000C9493000C94930014
:100020000C9493000C9493000C9493000C94930004
:100030000C9493000C9493000C9493000C949300F4
:100040000C94DE030C9493000C9460040C949300C5
:100050000C9493000C9493000C9493000C949300D4
:100060000C9493000C949300072C7AA5BA6CC5905D
:10007000DA3B9365FC8BBC53F810FD3C5692834DE4
:10008000BD879D3AB63DCBC9BF5BBE73DA0FC93F92
:1000900005A84CCDB2D44EB93836A9020C50B9914E
:1000A0008688083CA6AAAA2ABE000000803F0664F3
:1000B000EC1B3C04BC163E3BE5B93CC93C37C29E38
:1000C0005A3D660498083EEA69AAAA3E00000080EC
:1000D0003F001B03A90511241FBECFEFD8E0DEBFF0
:1000E000CDBF11E0A0E0B1E0E6EFF5E102C0059080
:1000F0000D92A038B107D9F712E0A0E8B1E001C035
:100100001D92A633B107E1F710E0C6EDD0E004C0C0
:100110002297FE010E94F50AC23DD107C9F70E944D
:10012000D7030C94F90A0C9400006F927F928F927F
:100130009F92AF92BF92CF92DF92EF92FF920F9376
:100140001F933C014801590181EE9EE2A5E6B2E40D
:10015000F30184879587A687B787CB01BA0121EE83
:100160003EE245E652E40E949907F3016083718301
:1001700082839383B7FAB094B7F8B094C501B40101
:1001800021EE3EE245E652E40E949907F3016483C2
:10019000758386839783C08AD18AE28AF38A8FEC3B
:1001A0009DE2AAECBFE380879187A287B3878FEF98
:1001B000848B158A1F910F91FF90EF90DF90CF9065
:1001C000BF90AF909F908F907F906F9008952FEC8D
:1001D0003DE24AEC5FE3FC01208731874287538789
:1001E0000895FC0184890895FC01858908952F9262
:1001F0003F924F925F926F927F928F929F92AF92B7
:10020000BF92CF92DF92EF92FF920F931F93DF93F3
:10021000CF93CDB7DEB76B970FB6F894DEBF0FBEA6
:10022000CDBF9B8F8A8FE42E298F70E06150704084
:10023000882777FD8095982F0E94340826E636E6B9
:1002400042EF51E40E946A095B016C01FF24002720
:10025000F7FC0095102FC801B7010E9434089B01DC
:10026000AC01C601B5010E94320720E030E040E851
:100270005FE30E9431070E940108882777FD80957F
:10028000982F0E9434082FEC34E04DE85CE30E9484
:100290006A095B016C010E9496076D8B7E8B8F8BC8
:1002A000988FC601B5010E94CD09698B7A8B8B8B23
:1002B0009C8BC601B501A60195010E9432077B0106
:1002C0008C01C8010E9496076D877E878F87988B67
:1002D000B701C8010E94CD0969877A878B879C87FF
:1002E000C601B50120E030E040E450E40E946A0914
:1002F0007B018C01C8010E9496073B014C01B701AC
:10030000C8010E94CD095B016C016D897E898F89CE
:10031000988D24E431EC4CEC5EEB0E946A0924E6F3
:1003200030EB42EE5BE30E9432077B018C0169896E
:100330007A898B899C8927EE32EE4FE85DE30E9433
:100340006A099B01AC01C801B7010E9432077B0119
:100350008C016D857E858F85988926E332E74DED8A
:100360005BEB0E946A099B01AC01C801B7010E94C6
:1003700032077B018C0169857A858B859C852DEB05
:1003800033EC4DE65AE30E946A099B01AC01C801B7
:10039000B7010E9432077B018C01C401B30127E23F
:1003A00030EC40E35BEB0E946A099B01AC01C801A1
:1003B000B7010E9432077B018C01C601B5012FE80D
:1003C0003CEF41EC5AE30E946A099B01AC01C80171
:1003D000B7010E9432077B018C01EA8DFB8D60859D
:1003E0007185828593850E9496076D837E838F83B6
:1003F0009887EA8DFB8DA080B180C280D380C60132
:10040000B5010E94960769837A838B839C83B70129
:10041000C8010E9496073B014C01C601B5010E942C
:10042000210A1B012C01B701C8010E94210A5B01AE
:100430006C0169817A818B819C81A40193010E9466
:100440006A099B01AC016D817E818F8198850E9434
:1004500099077B018C01C201B101A60195010E949F
:100460006A099B01AC01C801B7010E9431077B01F9
:100470008C019F7720E030E040E85FE30E9466094E
:1004800018163CF48FEFEA8DFB8D848B2FEF3FEF36
:10049000B0C0C801B7010E9423079B01AC01F98DD0
:1004A000FF2309F45058EA8DFB8D648175818681A4
:1004B00097810E94310720E030E040E850E40E943C
:1004C0006A09EA8DFB8D24853585468557850E940E
:1004D0006A0920E030E044E354E40E9432075B0103
:1004E0006C016D897E898F89988D2EEA37ED44EFF6
:1004F0005AE30E946A0922E539E44DE958E30E9473
:1005000032077B018C0169897A898B899C892CE26D
:1005100033E643E05DEB0E946A099B01AC01C80130
:10052000B7010E9432077B018C016D857E858F8526
:10053000988921EC33E74FE65CEB0E946A099B0146
:10054000AC01C801B7010E9432077B018C016985AB
:100550007A858B859C8528E431E547E25DEB0E9436
:100560006A099B01AC01C801B7010E94320724E16E
:100570003EE245E653E40E946A099B01AC01C601D4
:10058000B5010E9431070E940108882777FD8095F8
:10059000982F0E9434087B018C01EA8DFB8D6089C5
:1005A00071898289938920E030E040E752E40E941B
:1005B0006A099B01AC01C801B7010E9432070E9481
:1005C0000108CB0177FF02C080569A4F60EA75E0C0
:1005D0000E948F0A9C016CE370E00E948F0AEA8DF2
:1005E000FB8D648B84EC9FEF689F602D1124620F5C
:1005F000658BC9016B960FB6F894DEBF0FBECDBFF9
:10060000CF91DF911F910F91FF90EF90DF90CF90EE
:10061000BF90AF909F908F907F906F905F904F9022
:100620003F902F90089520E00E94F700089521E068
:100630000E94F7000895CF92DF92EF92FF920F93FE
:100640001F9380E891E040E050E06CE172E400E04C
:1006500010E020E131EC0F2EF0E0CF2EF0E0DF2EA5
:10066000F0E0EF2EF0E0FF2EF02D0E9495001F919C
:100670000F91FF90EF90DF90CF900895DF92EF926F
:10068000FF920F931F9380E891E06CE04EE10E948F
:10069000170397FD35C080E891E00E94F100E82E35
:1006A00080E891E00E94F400D82E83E292E060E0BE
:1006B00071E00E941A06FF2400E010E083E292E05D
:1006C000B801A7012AE030E00E94030783E292E02C
:1006D0006DE171E00E941A0689E08D1530F083E229
:1006E00092E06FE171E00E941A064D2D50E060E04B
:1006F00070E083E292E02AE030E00E94180706C032
:1007000083E292E061E271E00E94390680E891E0C4
:100710006CE04EE10E94130397FD35C080E891E044
:100720000E94F100E82E80E891E00E94F400D82EAB
:1007300083E292E067E571E00E941A06FF2400E080
:1007400010E083E292E0B801A7012AE030E00E94C5
:10075000030783E292E06DE171E00E941A0689E0EE
:100760008D1530F083E292E06FE171E00E941A068D
:100770004D2D50E060E070E083E292E02AE030E04E
:100780000E94180706C083E292E061E271E00E94D5
:100790003906FFCF83E292E040E855E260E070E086
:1007A0000E949D0480E891E00E94E70008950E9465
:1007B00026040E94CA030E943E03FDCF1F920F929F
:1007C0000FB60F9211242F933F938F939F93AF9364
:1007D000BF9380919A0190919B01A0919C01B0914F
:1007E0009D0130919E010196A11DB11D232F2D5F0A
:1007F0002D3720F02D570196A11DB11D20939E018C
:1008000080939A0190939B01A0939C01B0939D01CA
:100810008091960190919701A0919801B0919901D2
:100820000196A11DB11D8093960190939701A0930D
:100830009801B0939901BF91AF919F918F913F9192
:100840002F910F900FBE0F901F901895789484B53C
:10085000826084BD84B5816084BD85B5826085BDBC
:1008600085B5816085BDEEE6F0E0808181608083A2
:10087000E1E8F0E080818260808380818160808314
:10088000E0E8F0E0808181608083E1EBF0E080814E
:1008900084608083E0EBF0E0808181608083EAE720
:1008A000F0E08081846080838081826080838081A9
:1008B000816080838081806880831092C100089568
:1008C0001F920F920FB60F9211242F933F934F93C5
:1008D0005F936F937F938F939F93AF93BF93EF93A8
:1008E000FF934091C600E0911F02F0912002CF01DA
:1008F000019660E870E00E948F0A9C0180912102BD
:10090000909122022817390739F0E156FE4F4083B3
:100910003093200220931F02FF91EF91BF91AF917E
:100920009F918F917F916F915F914F913F912F9107
:100930000F900FBE0F901F9018955F926F927F924D
:100940008F929F92AF92BF92CF92DF92EF92FF92DF
:100950000F931F93CF93DF93EC013A014B01413486
:1009600082E458078FE0680780E078070CF07FC0CA
:1009700060E874E88EE190E0A40193010E94C40A4B
:100980002150304040405040CA01B90122E030E0DF
:1009900040E050E00E94C40A59016A01A601950195
:1009A000209530954095509594E0220F331F441FB9
:1009B000551F9A95D1F760E074E284EF90E00E94B1
:1009C000C40ACA01B9012FEF30E040E050E00E94B4
:1009D000700AA40193010E94C40AC90181509F4F6B
:1009E000181619061CF4522E5A9403C05524539419
:1009F000521A60E079E08DE390E0A40193010E9437
:100A0000C40A2150304040405040CA01B90122E0A0
:100A100030E040E050E00E94C40A209530954095B7
:100A2000509583E0220F331F441F551F8A95D1F73D
:100A300060E074E284EF90E00E94C40ACA01B90148
:100A40002FEF30E040E050E00E94700AA4019301D3
:100A50000E94C40AC90181509F4F181619061CF440
:100A6000822F815002C081E0821B851500F5E88548
:100A7000F98581E090E00A8802C0880F991F0A94E6
:100A8000E2F7808360E079E08DE390E0A4019301D8
:100A90000E94C40A2150304040405040CA01B90170
:100AA00022E030E040E050E00E94C40A04C0E88543
:100AB000F98510829501EC81FD813083EE81FF8103
:100AC0002083EA85FB85208141E050E0CA010E8445
:100AD00002C0880F991F0A94E2F7282B2083EA8529
:100AE000FB852081CA010F8402C0880F991F0A94D8
:100AF000E2F7282B2083EA85FB858081088802C0E5
:100B0000440F551F0A94E2F7842B8083DF91CF9125
:100B10001F910F91FF90EF90DF90CF90BF90AF901B
:100B20009F908F907F906F905F900895FC01A085BB
:100B3000B18521898C9190E0022E02C09595879510
:100B40000A94E2F780FFF6CF0484F585E02D6083F8
:100B500008958AE791E090932402809323028FE91D
:100B600091E0909326028093250285EC90E090938B
:100B700028028093270284EC90E090932A028093CD
:100B8000290280EC90E090932C0280932B0281EC60
:100B900090E090932E0280932D0286EC90E090934B
:100BA000300280932F0284E08093310283E08093AF
:100BB000320287E08093330285E08093340281E043
:100BC0008093350208950F931F93CF93DF938C0189
:100BD000EB0109C02196D801ED91FC910190F081C3
:100BE000E02DC801099568816623A1F7DF91CF91B7
:100BF0001F910F910895EF92FF920F931F93CF9340
:100C0000DF938C017B01EA010CC0D7016D917D015E
:100C1000D801ED91FC910190F081E02DC80109957A
:100C20002197209791F7DF91CF911F910F91FF901E
:100C3000EF900895DC01ED91FC910280F381E02DAD
:100C4000099508950F931F938C01DC01ED91FC91A0
:100C50000190F081E02D6DE00995D801ED91FC91B6
:100C60000190F081E02DC8016AE009951F910F9174
:100C700008950F931F938C010E941A06C8010E94C9
:100C800022061F910F9108952F923F924F925F92EB
:100C90006F927F928F929F92AF92BF92CF92DF928C
:100CA000EF92FF920F931F93DF93CF93CDB7DEB7F1
:100CB000A0970FB6F894DEBF0FBECDBF1C016A012E
:100CC0007B01411551056105710549F4DC01ED9188
:100CD000FC910190F081E02D60E3099554C08824D7
:100CE00099245401422E55246624772401E010E013
:100CF0000C0F1D1F080D191DC701B601A30192019C
:100D00000E94A20AF80160830894811C911CA11C16
:100D1000B11CC701B601A30192010E94A20AC90138
:100D2000DA016C017D01C114D104E104F104F1F692
:100D300081E0E82EF12CEC0EFD1EE80CF91C3E01C2
:100D40000894611C711CD501C4010197A109B10966
:100D50006C01C818D90814C0F601EE0DFF1D6081A2
:100D60006A3010F4605D01C0695CD101ED91FC91C5
:100D70000190F081E02DC10109950894E108F10886
:100D80006E147F0449F7A0960FB6F894DEBF0FBE2D
:100D9000CDBFCF91DF911F910F91FF90EF90DF902A
:100DA000CF90BF90AF909F908F907F906F905F900B
:100DB0004F903F902F900895EF92FF920F931F93C3
:100DC000CF93DF93EC017A018B0177FF0FC0E881AD
:100DD000F9810190F081E02D6DE209951095009563
:100DE000F094E094E11CF11C011D111DCE01B8012D
:100DF000A7012AE00E944406DF91CF911F910F9135
:100E0000FF90EF900895DC012115310541F4ED913B
:100E1000FC910190F081E02D642F099508952A300E
:100E2000310519F40E94DC0608950E9444060895D5
:100E30000F931F938C010E940307C8010E94220692
:100E40001F910F9108959F939F7749D10F90002094
:100E50003AF49058A2EA2AED3FE049E450E413D076
:100E6000EAC15058BB27AA270ED0E5C1A5D130F062
:100E7000AAD120F031F49F3F11F41EF475C10EF495
:100E8000E095E7FB6BC1E92FF8D180F3BA17620751
:100E900073078407950718F071F49EF510C20EF4DD
:100EA000E0950B2EBA2FA02D0B01B90190010C017A
:100EB000CA01A0011124FF27591B99F0593F50F492
:100EC000503E68F11A16F040A22F232F342F4427EA
:100ED000585FF3CF469537952795A795F0405395E2
:100EE000C9F77EF41F16BA0B620B730B840BBAF0B2
:100EF0009150A1F0FF0FBB1F661F771F881FC2F71D
:100F00000EC0BA0F621F731F841F48F48795779530
:100F10006795B795F7959E3F08F0B3CF9395880FE7
:100F200008F09927EE0F97958795089554D1E3958A
:100F300093C10CD080C147D140F03ED130F021F4B4
:100F40005F3F19F00BC15111BBC10EC196D198F38F
:100F50009923C9F35523B1F3951B550BBB27AA273A
:100F600062177307840738F09F5F5F4F220F331FAC
:100F7000441FAA1FA9F333D00E2E3AF0E0E830D078
:100F800091505040E695001CCAF729D0FE2F27D07B
:100F9000660F771F881FBB1F261737074807AB0749
:100FA000B0E809F0BB0B802DBF01FF2793585F4FBE
:100FB0002AF09E3F510568F0D1C082C15F3FECF33B
:100FC000983EDCF3869577956795B795F7959F5F83
:100FD000C9F7880F911D9695879597F90895E1E0D7
:100FE000660F771F881FBB1F621773078407BA0736
:100FF00020F0621B730B840BBA0BEE1F88F7E09591
:10100000089504D06894B1115BC108953ED188F071
:101010009F5790F0B92F9927B751A0F0D1F0660FE4
:10102000771F881F991F1AF0BA95C9F712C0B130FF
:1010300081F045D1B1E0089542C1672F782F88270C
:10104000B85F39F0B93FCCF3869577956795B3953E
:10105000D9F73EF490958095709561957F4F8F4FAD
:101060009F4F0895E89409C097FB3EF490958095B2
:10107000709561957F4F8F4F9F4F9923A9F0F92F5E
:1010800096E9BB279395F695879577956795B795DC
:10109000F111F8CFFAF4BB0F11F460FF1BC06F5FC2
:1010A0007F4F8F4F9F4F16C0882311F096E911C0D4
:1010B000772321F09EE8872F762F05C0662371F0F5
:1010C00096E8862F70E060E02AF09A95660F771F09
:1010D000881FDAF7880F9695879597F90895DF931B
:1010E000CF931F930F938B01EC01E8E6F0E03FD024
:1010F000A2D09801AE018B01EC0160E070E080E8C5
:101100009FE3AFDE54D19801AE010F911F91CF91B3
:10111000DF91ECC0990F0008550FAA0BE0E8FEEF35
:1011200016161706E807F907C0F012161306E407AB
:10113000F50798F0621B730B840B950B39F40A26A4
:1011400061F0232B242B252B21F408950A2609F482
:10115000A140A6958FEF811D811D089597F99F6786
:1011600080E870E060E008959FEF80EC0895DF93E1
:10117000CF931F930F93FF92EF92DF927B018C012D
:10118000689405C0DA2EEF01B1D0FE01E894A59174
:101190002591359145915591AEF3EF0174DEFE0135
:1011A0009701A801DA9479F7DF90EF90FF900F9103
:1011B0001F91CF91DF91089500240A941616170607
:1011C00018060906089500240A9412161306140638
:1011D00005060895C9CF59D0E8F3E894EFEFBB278F
:1011E0003FE048EC5FE76B3D73078407950708F124
:1011F000FF279F57B25A6A4D7F40894CF04032F426
:10120000BE556542704F8643FF4F0894EE1F9150C4
:1012100030F0BB0F661F771F881FFF1FEBCF9EE7C5
:10122000882332F0BB0F661F771F881F9A95C1F77E
:101230009395E09526C1092E0394000C11F48823A0
:1012400052F0BB0F40F4BF2B11F460FF04C06F5F7E
:101250007F4F8F4F9F4F0895EF93E0FF06C0A2EAA4
:101260002AED3FE049EC5FEB0EDEE5DF0F900394E3
:1012700001FC9058E0E9F0E01BC157FD9058440F85
:10128000551F59F05F3F71F04795880F97FB991FE5
:1012900061F09F3F79F087950895121613061406A2
:1012A000551FF2CF4695F1DF08C01616170618062F
:1012B000991FF1CF86957105610508940895E8940A
:1012C000BB2766277727CB0197F9089523DF08F41A
:1012D0008FEF08950BD0AFCF6FDF28F074DF18F0D9
:1012E000952309F03BCF40CF1124EACFC6DFA0F30E
:1012F000959FD1F3950F50E0551F629FF001729FAB
:10130000BB27F00DB11D639FAA27F00DB11DAA1FC9
:10131000649F6627B00DA11D661F829F2227B00D16
:10132000A11D621F739FB00DA11D621F839FA00DA1
:10133000611D221F749F3327A00D611D231F849FF1
:10134000600D211D822F762F6A2F11249F57504048
:101350008AF0E1F088234AF0EE0FFF1FBB1F661FE3
:10136000771F881F91505040A9F79E3F510570F09C
:10137000F5CEA6CF5F3FECF3983EDCF386957795EC
:101380006795B795F795E7959F5FC1F7FE2B880F97
:10139000911D9695879597F908959F931CDF0F905F
:1013A00007FCEE5F59CF11F40EF4DECE6AC06DDF9C
:1013B000D0F39923D9F3CEF39F57550B87FF71D004
:1013C00056959795B0E020F4660F771F881FBB1FD6
:1013D0001F930F9300249001A0018001F001A0E869
:1013E0000E0F1F1F0A1E511D601B710B8009B50BCC
:1013F00048F4600F711F801DB51F0E1B1F0B0A0ADA
:10140000510907C02E0F3F1F4A1F0E0F1F1F0A1E34
:10141000511D660F771F881FBB1FA695F795E7958F
:10142000F8F60617170708065B07211D311D411D39
:101430000F911F91B901842F9158880F9695879528
:101440000895DF93D92FC7DEE695D7952AED3FE0C3
:1014500049E45FE3B33A6207730784079507D795BA
:101460002AF0A2EA49EC90680EDDE5DEEEEAF0E053
:101470001FD0DD0F0BF02DD0DD0F0BF49058DF9156
:1014800008959F3F49F0915028F486957795679588
:10149000B7959F5F80389F4F880F9695879597F9EE
:1014A000089591505040660F771F881FD2F7089516
:1014B0009F938F937F936F93FF93EF939B01AC0167
:1014C00009DFEF91FF9153DE2F913F914F915F9193
:1014D00001CF9B01AC0160E070E080E89FE329CD83
:1014E000629FD001739FF001829FE00DF11D649F08
:1014F000E00DF11D929FF00D839FF00D749FF00D94
:10150000659FF00D9927729FB00DE11DF91F639F34
:10151000B00DE11DF91FBD01CF011124089597FB06
:10152000092E07260AD077FD04D049D006D0002026
:101530001AF4709561957F4F0895F6F7909581950F
:101540009F4F0895A1E21A2EAA1BBB1BFD010DC0DF
:10155000AA1FBB1FEE1FFF1FA217B307E407F50763
:1015600020F0A21BB30BE40BF50B661F771F881F3F
:10157000991F1A9469F760957095809590959B01D5
:10158000AC01BD01CF01089597FB092E05260ED0B1
:1015900057FD04D0D7DF0AD0001C38F45095409591
:1015A000309521953F4F4F4F5F4F0895F6F7909537
:1015B0008095709561957F4F8F4F9F4F0895AA1B1F
:1015C000BB1B51E107C0AA1FBB1FA617B70710F02E
:1015D000A61BB70B881F991F5A95A9F78095909560
:1015E000BC01CD010895EE0FFF1F0590F491E02D91
:0615F0000994F894FFCFFE
:1015F6005468652073756E207269736573206F6E0B
:10160600204A756E6520333020617420003A003020
:101616000054686572652061726520656974686545
:10162600722070656E6775696E73206F7220706FB9
:101636006C61722062656172732061726F756E648F
:1016460020686572652100207C20546865207375CA
:101656006E2073657473206F6E204A756E65203335
:10166600302061742000000000009605E305FB05AC
:00000001FF
