:020000040800F2
:1000000000C00020F5460008094100080B41000827
:100010000D4100080F4100081141000800000000D8
:100020000000000000000000000000001341000874
:1000300015410008000000001741000819410008A0
:100040003947000839470008394700083947000890
:100050003947000839470008394700083947000880
:10006000394700083947000839470008493C00086B
:100070003947000839470008394700083947000860
:100080003947000839470008394700083947000850
:100090003947000839470008394700083947000840
:1000A0003947000839470008394700083947000830
:1000B0003947000839470008394700083947000820
:1000C0003947000839470008394700083947000810
:1000D0003947000839470008394700083947000800
:1000E00039470008394700083947000839470008F0
:1000F00039470008394700083947000839470008E0
:1001000039470008394700083947000839470008CF
:1001100039470008394700083947000839470008BF
:1001200039470008394700083947000839470008AF
:10013000394700083947000839470008394700089F
:10014000394700083947000839470008394700088F
:10018000044B05481B1A062B02D9044B03B1184730
:10019000704700BFF7000020F400002000000000BE
:1001A00005490648091A891001EBD171491002D09E
:1001B000034B03B118477047F4000020F4000020FF
:1001C0000000000010B5064C237843B9FFF7D8FFB4
:1001D000044B13B10448AFF300800123237010BD1A
:1001E000F400002000000000C449000808B5084BD6
:1001F0001BB108490848AFF300800848036813B9E9
:10020000BDE80840CCE7064B002BF9D09847F7E74C
:1002100000000000F8000020C4490008F40000209D
:100220000000000070B4860746D0541E002A41D05A
:10023000CAB2034602E014F1FF343BD303F8012BAA
:100240009D07F8D1032C2ED9CDB245EA05250F2CF8
:1002500045EA054519D903F110022646103E0F2E36
:1002600042F8105C42F80C5C42F8085C42F8045C0E
:1002700002F11002F2D8A4F1100222F00F0204F0F1
:100280000F041032032C13440DD91E462246043AA3
:10029000032A46F8045BFAD8221F22F00302043234
:1002A000134404F003042CB1C9B21C4403F8011B2D
:1002B0009C42FBD170BC704714460346C2E700BFA6
:1002C0000CB4F0B59DB022AC029154F8042B069109
:1002D00023466FF000454FF402774FF6FF7602A9F0
:1002E0000194ADF8147004950795ADF8166000F010
:1002F00095F9029B00221A701DB0BDE8F04002B0D3
:10030000704700BF0EB4F0B59CB021AB0F4953F855
:10031000042B019305466FF00044086802954FF4E2
:1003200002774FF6FF7602A90695ADF81470049493
:100330000794ADF8166000F071F9029B00221A7064
:100340001CB0BDE8F04003B0704700BF00000020C3
:10035000000000000000000000000000000000009D
:10036000000000000000000000000000000000008D
:10037000000000000000000000000000000000007D
:1003800090F800F06DE9024520F007016FF0000CD5
:1003900010F0070491F820F040F049804FF000047D
:1003A0006FF00700D1E9002391F840F000F1080058
:1003B00082FA4CF2A4FA8CF283FA4CF3A2FA8CF390
:1003C0004BBBD1E9022382FA4CF200F10800A4FAF7
:1003D0008CF283FA4CF3A2FA8CF3E3B9D1E904234B
:1003E00082FA4CF200F10800A4FA8CF283FA4CF382
:1003F000A2FA8CF37BB9D1E9062301F1200182FA3C
:100400004CF200F10800A4FA8CF283FA4CF3A2FA41
:100410008CF3002BC6D0002A04BF04301A4612BA4F
:10042000B2FA82F2FDE8024500EBD2007047D1E952
:10043000002304F00305C4F100004FEAC50514F0E1
:10044000040F91F840F00CFA05F562EA05021CBFB2
:1004500063EA050362464FF00004A9E72DE9F0477F
:100460008E689E420C461D46174628D880468889CD
:1004700010F4906F32D04E692368096906EB460686
:10048000A3EB010906EBD6766B1C76104B44B34206
:10049000324684BF1E463246430522D511464046A9
:1004A00000F054FD824680B34A46216900F008FC02
:1004B000A38923F4906343F08003A38116E00868C6
:1004C0001E462A46394600F095FCA2682368961B12
:1004D0002B44A66023600020BDE8F08708683546FD
:1004E000EFE7404600F090FD824650B1A6EB0903CD
:1004F0000AEB09006661C4F810A02060A3602E46D4
:10050000DFE72169404600F0D9FC0C23C8F8003031
:10051000A38943F04003A3814FF0FF30BDE8F0878B
:100520002DE9F04F936883B09046002B70D082463F
:100530000C4617688D68086842E0A38913F4906F31
:100540002ED06569216905EB4505A0EB010B05EB94
:10055000D5750BF101006D103044A8422A4684BFC6
:1005600005462A465B0538D51146504600F0EEFC9C
:1005700000283CD05A462169019000F0A1FBA289D5
:10058000019B22F4906242F08002A281A5EB0B0253
:1005900003EB0B00656123612060A2603546B34622
:1005A0005A46494600F026FCD8F80830A268206870
:1005B000551B58449E1BA5602060C8F808603EB3D8
:1005C0007E683B460837002EFAD0AE42D3F8009042
:1005D000AB46B2D23546B346E2E7504600F014FDD2
:1005E00003460028D2D12169504600F067FC0C2355
:1005F000CAF80030A389002243F040034FF0FF30D7
:10060000A381C8F80820C8F8042003B0BDE8F08F23
:100610000020C8F8040003B0BDE8F08F2DE9F04FCA
:1006200014468A899DB0150689460393824603D5F0
:100630000B69002B00F0EB8030238DF82A302378F3
:100640007C4E0022202109928DF829100127002BD1
:1006500000F08480252B254603D117E0252B00F0E0
:10066000878015F8013F002BF8D1B5EB040B75D04E
:1006700022465B4649465046FFF7F0FE01306DD0FA
:10068000099B2A785B440993002A67D000234FF026
:10069000FF3201350493079306938DF853301A9374
:1006A000059204E0049A07FA03F3134304932978AC
:1006B0000522304600F0B4FA2C46831B0135002891
:1006C000F0D1049BD90644BF20228DF85320217815
:1006D0001A0744BF2B228DF853202A296BD0A1F191
:1006E0003002092A0BD8079B14F8011F03EB830380
:1006F00002EB4303A1F13002092AF5D907932E2911
:1007000041D04D4D0322284600F08AFA38B1049BAF
:10071000401B402202FA00F0034301340493217885
:1007200046488DF828100622013400F079FA002896
:100730004BD0434B03B303AB00934A46414B04A950
:100740005046AFF300808046B8F1FF3F06D0099BCA
:10075000434409932378002B7FF47CAFB9F80C3025
:100760005B0654BF09984FF0FF301DB0BDE8F08F15
:10077000B5EB040B8AD07BE7039B073323F0070319
:1007800008330393E3E761782A2904F1010026D0B6
:10079000A1F130020023092A05930446B1D814F8C8
:1007A000011F03EB830302EB4303A1F13002092A8B
:1007B000F5D90593A5E7039A11680432002903923D
:1007C0001FDB07916178013499E703AB00934A4638
:1007D0001C4B04A9504600F0D1F88046B4E7039BB7
:1007E0001A680592002A03F104030393B8BF4FF07F
:1007F000FF3204F10203AEBFA178A17805921C4636
:100800007FE7494243F0020307910493DAE740216E
:1008100000F09CFBC9F80000C9F8100018B1402393
:10082000C9F8143008E70C23CAF800304FF0FF3045
:100830009BE700BF884900089049000894490008D8
:10084000000000005D0400082DE9F0470C469146C9
:100850000A698968DDF820808A42B8BF0A46C9F86B
:10086000002094F8431006461F4611B10132C9F822
:100870000020236899065DD5D9F800200232C9F816
:100880000020236813F0060F19461DD1E1688A1A6B
:10089000002AD8BF194617DD04F1190A002505E022
:1008A000E368D9F800209B1AAB420CDD01235246C5
:1008B00039463046C047013005F10105F0D14FF00F
:1008C000FF30BDE8F087216894F84330003318BF4B
:1008D00001238A060AD5E1185A1C302081F843000A
:1008E000224494F8451082F84310023304F1430285
:1008F00039463046C0470130E1D0236803F0060393
:10090000042B29D0A36822699342C8BF4FF0000985
:1009100030DD9B1A99441A34002501E04D4529D059
:100920000123224639463046C047013005F1010512
:10093000F4D1C4E713F0060F08D1E168D9F800201C
:100940008A1A002AD8BF1946A6DCBDE794F84330BE
:10095000003318BF0123C9E7D9F80010E068A36885
:100960002269A0EB0109934229EAE979D1DCB9F1C6
:10097000000FD0D10020BDE8F08700BF2DE9F04383
:100980000C46097E85B06E29064617460C98984697
:1009900004F1430C55D00FD8632900F01B8100F2FD
:1009A000D68000295CD0582940F0E88084F84510B2
:1009B0002268DFF860E213E0732900F0FD8000F2A6
:1009C00089806F2900F0E480702940F0D780226888
:1009D00042F0200222607823DFF83CE284F84530C0
:1009E0000368150603F1040100F1FF8055064BBFB3
:1009F0001B881B6801600160D00744BF42F02002E1
:100A00002260002B40F09580226822F020022260B4
:100A10001021002284F843206068A0600028C0F202
:100A20008D80226822F004022260002B67D100280A
:100A300040F08680654608296FD0ACEB0503236142
:100A400011E023681A0600F1D38013F0400F036809
:100A5000626903F1040101601B6814BF1A801A6007
:100A6000002365462361CDF800803B4603AA21465A
:100A70003046FFF7E9FE013021D02A462369394686
:100A80003046C04701301AD02368E06813F0020FE7
:100A9000039B19D0C21A002A16DD04F1190900259A
:100AA00004E0E068039BC21AAA420DDD01234A4616
:100AB00039463046C047013005F10105F1D14FF00C
:100AC000FF3005B0BDE8F0839842B8BF184605B0C6
:100AD000BDE8F08375295BD078294FD122687AE789
:100AE0006168A1602D200029C3F1000384F8430050
:100AF00021DB22F00402DFF81CE122600A216546B6
:100B0000B3FBF1F201FB123013461EF8002005F88A
:100B1000012D002BF4D108298FD12368D9078CD55A
:100B2000626823699A4288DC302305F8013C013D64
:100B300083E710216DE7DFF8DCE00A21002BDED12E
:100B40009EF8003084F8423004F1420573E76429CE
:100B500001D0692912D122680368150603F1040146
:100B600052D455064BBFB3F900301B6801600160D9
:100B7000002BB5DBDFF89CE00A214DE7012384F868
:100B80004210236104F14205002384F843306AE7F0
:100B900023681A0633D413F0400F036803F10402EC
:100BA00015BF1B881B68026002606F2914BF0A21F1
:100BB0000821DFF860E02CE703686268191D016016
:100BC0001D680021284600F02BF800B3401B606030
:100BD0002061D9E703681A68191D0123016004F137
:100BE000420584F842202361CEE701601B6803E7D9
:100BF00003686269191D01601B681A6030E70368A9
:100C00001A1D02601B68D0E701601B68B0E76068CE
:100C1000DEE700BF9C490008B04900080000000062
:100C200001F0FF01102A2BDB10F0070F08D010F89D
:100C3000013B013A8B422DD010F0070F42B3F6D1A1
:100C4000F0B441EA012141EA014122F007047FF0BA
:100C500000070023F0E80256083C85EA010586EA11
:100C6000010685FA47F5A3FA87F586FA47F6A5FA4D
:100C700087F68EB9EED1F0BC01F0FF0102F0070259
:100C800032B110F8013B013A83EA010313B1F8D104
:100C90000020704701387047002D06BF35460338E5
:100CA000073815F0010F07D1013015F4807F02BF1E
:100CB000013015F4C03F0130F0BC0138704700BF6F
:100CC000844641EA000313F003036DD1403A41D357
:100CD00051F8043B40F8043B51F8043B40F8043B16
:100CE00051F8043B40F8043B51F8043B40F8043B06
:100CF00051F8043B40F8043B51F8043B40F8043BF6
:100D000051F8043B40F8043B51F8043B40F8043BE5
:100D100051F8043B40F8043B51F8043B40F8043BD5
:100D200051F8043B40F8043B51F8043B40F8043BC5
:100D300051F8043B40F8043B51F8043B40F8043BB5
:100D400051F8043B40F8043B51F8043B40F8043BA5
:100D5000403ABDD2303211D351F8043B40F8043B45
:100D600051F8043B40F8043B51F8043B40F8043B85
:100D700051F8043B40F8043B103AEDD20C3205D355
:100D800051F8043B40F8043B043AF9D2043208D04D
:100D9000D2071CBF11F8013B00F8013B01D30B88BF
:100DA00003806046704700BF082A13D38B078DD09D
:100DB00010F003038AD0C3F10403D21ADB071CBF6F
:100DC00011F8013B00F8013B80D331F8023B20F8D9
:100DD000023B7BE7043AD9D3013A11F8013B00F812
:100DE000013BF9D20B7803704B7843708B7883709A
:100DF000604670478842F0B50DD98B1898420AD2E8
:100E00008418002A51D0224613F8014D02F8014DF2
:100E10009942F9D1F0BD0F2A48D941EA00039B0756
:100E200046D100F1100401F11003154653F8106C7F
:100E300044F8106C53F80C6C44F80C6C53F8086CC4
:100E400044F8086C103D53F8046C44F8046C0F2D02
:100E500003F1100304F11004E8D8A2F1100323F009
:100E60000F0302F00F0E1033BEF1030F19440344B9
:100E700021D91E1F0D467446043C55F8047B46F8E4
:100E8000047F032CF8D8AEF1040424F003040434E6
:100E90002144234402F0030262B1013B0A4411F8E9
:100EA000014B03F8014F8A42F9D1F0BD0346F3E745
:100EB0000346F2E7F0BD7246EEE700BF91B151F88C
:100EC000043C0439002BB8BFC9181F4B1A68FAB18B
:100ED0008A4230B40AD908680C18A24226D04A6067
:100EE000196030BC70478B4203D81A465368002BF8
:100EF000F9D1146815198D420DD006D808680C1860
:100F00009C4219D04B605160EBE70C230360E8E78B
:100F10004A601960704709680C44111999421460BD
:100F2000DFD10ACB0C4453601460DAE714685268CE
:100F30004A6020440860D3E71C685B684B6020442B
:100F400008605160CDE700BF1001002070B5CC1CD7
:100F500024F0030408340C2C38BF0C24002C064663
:100F60003BDBA14239D8274D296851B10A68121BD1
:100F700004D436E01A68121B1AD519464B68002BA8
:100F8000F8D16968002937D02146304600F064F86E
:100F9000431C22D0C31C23F00305A84205D0291A04
:100FA000304600F059F8013017D02C602B4604E091
:100FB0000B2A0DD91A6013441C6003F10B0020F0BA
:100FC00007001A1D821A02D05142995070BD70BD9F
:100FD0008B420ED05A684A60EFE70C233360002042
:100FE00070BD0B2A03D84A680B462A60E5E70B461A
:100FF000E0E70A460B46F8E7304600F02DF8686057
:10100000C2E700BF10010020F8B51446F9B1C2B123
:1010100006460D4600F032F8844201D82846F8BD55
:1010200021463046FFF792FF074670B12246294617
:10103000FFF746FE294630463D46FFF73FFF28466C
:10104000F8BDFFF73BFF2546E8E70546E6E7114612
:10105000BDE8F840FFF77ABF38B5074C00230546D6
:101060000846236000F014F8431C00D038BD236804
:10107000002BFBD02B6038BD1005002051F8040C6C
:101080000028A0F10400BCBF0B58C018704700BF77
:10109000044A05491368002B08BF0B46184410602A
:1010A00018467047180100201405002081F0004107
:1010B00002E000BF83F0004330B54FEA41044FEA3D
:1010C000430594EA050F08BF90EA020F1FBF54EAD8
:1010D000000C55EA020C7FEA645C7FEA655C00F074
:1010E000E2804FEA5454D4EB5555B8BF6D420CDD45
:1010F0002C4480EA020281EA030382EA000083EAC8
:10110000010180EA020281EA0303362D88BF30BD67
:1011100011F0004F4FEA01314FF4801C4CEA1131BD
:1011200002D0404261EB410113F0004F4FEA03331C
:101130004CEA133302D0524263EB430394EA050FA7
:1011400000F0A780A4F10104D5F1200E0DDB02FA16
:101150000EFC22FA05F2801841F1000103FA0EF2AA
:10116000801843FA05F359410EE0A5F120050EF170
:10117000200E012A03FA0EFC28BF4CF0020C43FAA1
:1011800005F3C01851EBE37101F0004507D54FF0AE
:10119000000EDCF1000C7EEB00006EEB0101B1F5FE
:1011A000801F1BD3B1F5001F0CD349085FEA300044
:1011B0004FEA3C0C04F101044FEA445212F5800F4F
:1011C00080F09A80BCF1004F08BF5FEA500C50F1EC
:1011D000000041EB045141EA050130BD5FEA4C0CCF
:1011E000404141EB010111F4801FA4F10104E9D158
:1011F00091F0000F04BF01460020B1FA81F308BF4F
:101200002033A3F10B03B3F120020CDA0C3208DD1A
:1012100002F1140CC2F10C0201FA0CF021FA02F1F5
:101220000CE002F11402D8BFC2F1200C01FA02F165
:1012300020FA0CFCDCBF41EA0C019040E41AA2BF8A
:1012400001EB0451294330BD6FEA04041F3C1CDA52
:101250000C340EDC04F11404C4F1200220FA04F072
:1012600001FA02F340EA030021FA04F345EA03011C
:1012700030BDC4F10C04C4F1200220FA02F001FADE
:1012800004F340EA0300294630BD21FA04F0294660
:1012900030BD94F0000F83F4801306BF81F48011F9
:1012A0000134013D4EE77FEA645C18BF7FEA655C6C
:1012B00029D094EA050F08BF90EA020F05D054EA3E
:1012C000000C04BF1946104630BD91EA030F1EBF43
:1012D0000021002030BD5FEA545C05D14000494147
:1012E00028BF41F0004130BD14F580043CBF01F53A
:1012F000801130BD01F0004545F0FE4141F4700120
:101300004FF0000030BD7FEA645C1ABF19461046FA
:101310007FEA655C1CBF0B46024650EA013406BFFB
:1013200052EA033591EA030F41F4002130BD00BFBA
:1013300090F0000F04BF0021704730B54FF4806477
:1013400004F132044FF000054FF0000150E700BFF8
:1013500090F0000F04BF0021704730B54FF4806457
:1013600004F1320410F0004548BF40424FF0000144
:101370003EE700BF42004FEAE2014FEA31014FEA87
:1013800002701FBF12F07F4393F07F4F81F06051D6
:10139000704792F0000F14BF93F07F4F704730B545
:1013A0004FF4607401F0004521F0004120E700BFD8
:1013B00050EA010208BF704730B54FF000050AE05F
:1013C00050EA010208BF704730B511F0004502D560
:1013D000404261EB41014FF4806404F132045FEA62
:1013E000915C3FF4DCAE4FF003025FEADC0C18BF07
:1013F00003325FEADC0C18BF033202EBDC02C2F1FD
:10140000200300FA03FC20FA02F001FA03FE40EA8E
:101410000E0021FA02F11444C1E600BF70B54FF08E
:10142000FF0C4CF4E06C1CEA11541DBF1CEA135570
:1014300094EA0C0F95EA0C0F00F0DEF82C4481EAD8
:10144000030621EA4C5123EA4C5350EA013518BFF8
:1014500052EA033541F4801143F4801338D0A0FBE5
:1014600002CE4FF00005E1FB02E506F00042E0FB92
:1014700003E54FF00006E1FB03569CF0000F18BF98
:101480004EF0010EA4F1FF04B6F5007F64F5407440
:1014900004D25FEA4E0E6D4146EB060642EAC621D3
:1014A00041EA55514FEAC52040EA5E504FEACE2E40
:1014B000B4F1FD0C88BFBCF5E06F1ED8BEF1004F43
:1014C00008BF5FEA500E50F1000041EB045170BDBF
:1014D00006F0004646EA010140EA020081EA030103
:1014E000B4EB5C04C2BFD4EB0C0541EA045170BDFF
:1014F00041F480114FF0000E013C00F3AB8014F179
:10150000360FDEBF002001F0004170BDC4F10004C1
:10151000203C35DA0C341BDC04F11404C4F1200542
:1015200000FA05F320FA04F001FA05F240EA02009D
:1015300001F0004221F0004110EBD37021FA04F6D3
:1015400042EB06015EEA430E08BF20EAD37070BD8D
:10155000C4F10C04C4F1200500FA04F320FA05F0EC
:1015600001FA04F240EA020001F0004110EBD370EE
:1015700041F100015EEA430E08BF20EAD37070BD5E
:10158000C4F1200500FA05F24EEA020E20FA04F337
:1015900001FA05F243EA020321FA04F001F00041E6
:1015A00021FA04F220EA020000EBD3705EEA430E57
:1015B00008BF20EAD37070BD94F0000F0FD101F086
:1015C0000046400041EB010111F4801F08BF013CBF
:1015D000F7D041EA060195F0000F18BF704703F0FD
:1015E0000046520043EB030313F4801F08BF013D84
:1015F000F7D043EA0603704794EA0C0F0CEA135540
:1016000018BF95EA0C0F0CD050EA410618BF52EAF9
:101610004306D1D181EA030101F000414FF00000FF
:1016200070BD50EA410606BF1046194652EA43060D
:1016300019D094EA0C0F02D150EA013613D195EA81
:101640000C0F05D152EA03361CBF104619460AD1C9
:1016500081EA030101F0004141F0FE4141F47001D3
:101660004FF0000070BD41F0FE4141F4780170BDC3
:1016700070B54FF0FF0C4CF4E06C1CEA11541DBF28
:101680001CEA135594EA0C0F95EA0C0F00F0A7F82A
:10169000A4EB050481EA030E52EA03354FEA013157
:1016A00000F088804FEA03334FF0805545EA13136A
:1016B00043EA12634FEA022245EA111545EA106532
:1016C0004FEA00260EF000419D4208BF964244F1C9
:1016D000FD0404F5407402D25B084FEA3202B61AE8
:1016E00065EB03055B084FEA32024FF480104FF4BC
:1016F000002CB6EB020E75EB030E22BFB61A754630
:1017000040EA0C005B084FEA3202B6EB020E75EBC2
:10171000030E22BFB61A754640EA5C005B084FEA2A
:101720003202B6EB020E75EB030E22BFB61A7546F7
:1017300040EA9C005B084FEA3202B6EB020E75EB02
:10174000030E22BFB61A754640EADC0055EA060EC3
:1017500018D04FEA051545EA16754FEA06164FEA06
:10176000C30343EA52734FEAC2025FEA1C1CC0D1B2
:1017700011F4801F0BD141EA00014FF000004FF03F
:10178000004CB6E711F4801F04BF01430020B4F100
:10179000FD0C88BFBCF5E06F3FF6AFAEB5EB030CB8
:1017A00004BFB6EB020C5FEA500C50F1000041EBB5
:1017B000045170BD0EF0004E4EEA113114EB5C0482
:1017C000C2BFD4EB0C0541EA045170BD41F4801155
:1017D0004FF0000E013C90E645EA060E8DE60CEA5D
:1017E000135594EA0C0F08BF95EA0C0F3FF43BAF7A
:1017F00094EA0C0F0AD150EA01347FF434AF95EA31
:101800000C0F7FF425AF104619462CE795EA0C0F14
:1018100006D152EA03353FF4FDAE1046194622E7E1
:1018200050EA410618BF52EA43067FF4C5AE50EABB
:1018300041047FF40DAF52EA43057FF4EBAE12E7AB
:101840004FF0FF3C06E000BF4FF0010C02E000BF8C
:101850004FF0010C4DF804CD4FEA410C7FEA6C5C6F
:101860004FEA430C18BF7FEA6C5C1BD001B050EA12
:10187000410C0CBF52EA430C91EA030F02BF90EAFD
:10188000020F0020704710F1000F91EA030F58BFBC
:10189000994208BF90422CBFD8176FEAE37040F01E
:1018A000010070474FEA410C7FEA6C5C02D150EABC
:1018B000013C07D14FEA430C7FEA6C5CD6D152EA77
:1018C000033CD3D05DF8040B704700BF844610463C
:1018D00062468C461946634600E000BF01B5FFF73B
:1018E000B7FF002848BF10F1000F01BD4DF808ED0B
:1018F000FFF7F4FF0CBF012000205DF808FB00BFDC
:101900004DF808EDFFF7EAFF34BF012000205DF835
:1019100008FB00BF4DF808EDFFF7E0FF94BF012082
:1019200000205DF808FB00BF4DF808EDFFF7CEFF83
:1019300094BF012000205DF808FB00BF4DF808EDC2
:10194000FFF7C4FF34BF012000205DF808FB00BF93
:101950004FEA410212F5001215D211D56FF47873D7
:10196000B3EB625212D94FEAC12343F0004343EA7A
:10197000505311F0004F23FA02F018BF4042704755
:101980004FF00000704750EA013005D111F00040DF
:1019900008BF6FF0004070474FF00000704700BF75
:1019A0004FEA4102B2F1E04324BFB3F5001CDCF181
:1019B000FE5C0DD901F0004C4FEAC0024CEA5070B9
:1019C000B2F1004F40EB830008BF20F001007047E8
:1019D00011F0804F21D113F13872BCBF01F00040EB
:1019E000704741F480114FEA5252C2F11802C2F11D
:1019F000200C10FA0CF320FA02F018BF40F001009E
:101A00004FEAC1234FEAD32303FA0CFC40EA0C004F
:101A100023FA02F34FEA4303CCE77FEA625307D18C
:101A200050EA01331EBF4FF0FE4040F440007047C3
:101A300001F0004040F0FE4040F40000704700BF5D
:101A400053B94AB9002908BF00281CBF4FF0FF3125
:101A50004FF0FF3000F07AB9ADF1080C6DE904CE1B
:101A600000F006F8DDF804E0DDE9022304B0704779
:101A70002DE9F0478C460D460446089E002B51D1B7
:101A80008A4217466DD9B2FA82FEBEF1000F0BD022
:101A9000CEF1200C01FA0EF520FA0CFC02FA0EF73A
:101AA0004CEA050C00FA0EF44FEA174A250CBCFB71
:101AB000FAF81FFA87F90AFB18CC45EA0C4508FB2F
:101AC00009F3AB420AD9ED1908F1FF3280F0238106
:101AD000AB4240F22081A8F102083D44ED1AA4B2C5
:101AE000B5FBFAF00AFB105544EA054400FB09F97E
:101AF000A14509D9E41900F1FF3380F00A81A1451D
:101B000040F2078102383C44A4EB090440EA084053
:101B10000021002E61D024FA0EF40023346073609B
:101B2000BDE8F0878B4207D9002E54D0002186E80B
:101B300021000846BDE8F087B3FA83F1002940F0A0
:101B40008E80AB4202D3824200F2FA80841A65EBA7
:101B500003050120AC46002E3FD086E81010BDE8FA
:101B6000F08712B90127B7FBF2F7B7FA87FEBEF18B
:101B7000000F34D1EB1B3A0C1FFA87FC0121B3FB99
:101B8000F2F8250C02FB183345EA03450CFB08F379
:101B9000AB4207D9ED1908F1FF3002D2AB4200F297
:101BA000D1808046ED1AA3B2B5FBF2F002FB1055CE
:101BB00043EA05440CFB00FCA44507D9E41900F1F5
:101BC000FF3302D2A44500F2B8801846A4EB0C04FF
:101BD00040EA08409DE731463046BDE8F087CEF147
:101BE000200405FA0EF307FA0EF720FA04F83A0C6F
:101BF00025FA04F448EA0308B4FBF2F14FEA184569
:101C000002FB11441FFA87FC45EA044501FB0CF373
:101C1000AB4200FA0EF409D9ED1901F1FF3080F062
:101C20008A80AB4240F2878002393D44EB1A1FFAAA
:101C300088F5B3FBF2F002FB103345EA034500FBE5
:101C40000CF3AB4207D9ED1900F1FF386FD2AB426C
:101C50006DD902383D44EB1A40EA01418FE7C1F1EA
:101C6000200722FA07F88B4005FA01F448EA03033B
:101C700020FA07FE4FEA134CFD404EEA040EB5FB76
:101C8000FCF94FEA1E440CFB19551FFA83F844EA8D
:101C9000054509FB08F4AC4202FA01F200FA01FA28
:101CA00008D9ED1809F1FF3043D2AC4241D9A9F16E
:101CB00002091D442D1B1FFA8EFEB5FBFCF00CFB28
:101CC00010554EEA054400FB08F8A04507D9E41872
:101CD00000F1FF3529D2A04527D902381C4440EA3B
:101CE0000940A4EB0804A0FB02894C45C6464D46BA
:101CF00015D312D056B1BAEB0E0364EB050404FA07
:101D000007F7CB401F43CC40376074600021BDE82B
:101D1000F0871846F8E69046E0E6C245EAD2B8EB0E
:101D2000020E69EB03050138E4E72846D7E7404691
:101D300091E78146BEE7014678E702383C4445E733
:101D4000084608E7A8F102083D442BE7704700BFAA
:101D5000014B1868704700BFF000002008B5FFF77E
:101D6000F7FF044B5B68C3F30223034AD35CDBB287
:101D7000D84008BD00100240E800002008B5FFF779
:101D8000E7FF044B5B68C3F3C223034AD35CDBB2B7
:101D9000D84008BD00100240E800002030B4036ABB
:101DA00023F001030362036A4468826922F073022C
:101DB0000D682A4323F002038D682B43114DA8427E
:101DC00011D005F50065A8420DD00E4DA84211D0E6
:101DD00005F50065A8420DD0446082614A684263FF
:101DE000036230BC704723F00803CD682B4323F017
:101DF0000403EAE724F440744D692C438D692C43B5
:101E0000EAE700BF002C014030B4036A23F480737A
:101E10000362036A4468C26922F073020D682A43B0
:101E200023F400738D6843EA0523134DA84211D0B3
:101E300005F50065A8420DD00F4DA84212D005F55A
:101E40000065A8420ED04460C2614A68C263036262
:101E500030BC704723F40063CD6843EA052323F4C4
:101E60008063E9E724F440544D6944EA05148D6920
:101E700044EA0514E7E700BF002C014030B4036AD0
:101E800023F480530362036A4468C26922F4E64281
:101E90000D6842EA052223F400538D6843EA0533B6
:101EA000094DA8420AD005F50065A84206D0446055
:101EB000C2614A680264036230BC704724F4804403
:101EC0004D6944EA8514F2E7002C014010B4036A1E
:101ED000046A24F001040462846924F0F00444EAF2
:101EE000021223F00A030B43826103625DF8044B84
:101EF000704710B4036A23F0100303628469036A15
:101F000024F4704444EA023223F0A00343EA0113AC
:101F1000826103625DF8044B704710B4846824F456
:101F20007F4442EA032319430C4384605DF8044B69
:101F3000704710B50268936823F070034C68234320
:101F400023F007030C68234393604B68502B1FD08A
:101F50000AD9602B22D0702B25D10B698A68C968F9
:101F60000068FFF7DAFF10BD402B10D103681C6A30
:101F70001A6A22F001021A620268936923F0F003E0
:101F8000096943EA0113936103681C6210BD10BD27
:101F90000A6989680068FFF799FF10BD0A698968B6
:101FA0000068FFF7A6FF10BD704738B590F83C30C9
:101FB000012B01D1022038BD0446012580F83C5098
:101FC000022380F83D30FFF7B4FF2268D36823F086
:101FD0004003D3602268D36823F48043D36084F83D
:101FE0003D50002084F83C0038BD00000368254ABD
:101FF000904212D002F5006290420ED0B0F1804FB4
:102000000BD0A2F59832904207D002F58062904240
:1020100003D002F58062904203D123F070034A6836
:102020001343184A904212D002F5006290420ED03B
:10203000B0F1804F0BD0A2F59832904207D002F554
:102040008062904203D002F58062904203D123F473
:102050004073CA68134323F080034A691343036043
:102060008B68C3620B688362064B984206D003F507
:102070000063984202D00123436170470B690363F8
:10208000F9E700BF002C0140A8B110B5044690F854
:102090003D305BB1022384F83D30211D2068FFF7FD
:1020A000A5FF012384F83D30002010BD80F83C30AE
:1020B000FFF77AFFEEE701207047000030B4036AB3
:1020C00023F010030362036A4468826922F4E64243
:1020D0000D6842EA052223F020038D6843EA0513C8
:1020E000124DA84211D005F50065A8420DD00F4D44
:1020F000A84212D005F50065A8420ED04460826166
:102100004A688263036230BC704723F08003CD6865
:1021100043EA051323F04003E9E724F440644D69E2
:1021200044EA85048D6944EA8504E7E7002C014010
:1021300038B590F83C30012B66D00D46044601239B
:1021400080F83C30022380F83D300C2A1AD8DFE8B2
:1021500002F007191919201919193419191947000A
:102160000068FFF71BFE2268936943F00803936140
:102170002268936923F004039361226893692969B3
:102180000B439361012384F83D30002084F83C0028
:1021900038BD0068FFF792FF2268936943F400633B
:1021A00093612268936923F4806393612268936941
:1021B000296943EA01239361E4E70068FFF724FEFD
:1021C0002268D36943F00803D3612268D36923F0FE
:1021D0000403D3612268D36929690B43D361D1E732
:1021E0000068FFF74BFE2268D36943F40063D361B4
:1021F0002268D36923F48063D3612268D369296993
:1022000043EA0123D361BDE7022038BD10B40123A6
:1022100003FA01F4036A23EA04030362036A8A40AF
:10222000134303625DF8044B7047000010B5044689
:1022300001220068FFF7EAFF23680C4A934212D09C
:1022400002F5006293420CD000221AB15A6C42F49B
:1022500000425A642268136843F0010313600020AF
:1022600010BD0122F1E70122EFE700BF002C014081
:1022700010B4042303FA01F4036A23EA040303629B
:10228000036A8A40134303625DF8044B704710B53C
:10229000044604220068FFF7EBFF2268536C43F406
:1022A000004353642268136843F001031360002065
:1022B00010BD90F83C30012B25D0012380F83C3034
:1022C000CB6823F440738A68134323F480634A681D
:1022D000134323F400630A68134323F480530A6909
:1022E000134323F400534A69134323F480438A6958
:1022F000134323F40043134302685364002380F81C
:102300003C30184670470220704790F83C30012B53
:1023100022D030B4012280F83C20022380F83D30E6
:102320000468636823F070036360046863680D6881
:102330002B4363600468A36823F08003A3600468F0
:10234000A36849680B43A36080F83D20002380F810
:102350003C30184630BC704702207047034690F866
:102360002420012A20D0012280F8242002689068CD
:1023700010F0010F07D10D48806810F0010F02D155
:102380000B48824208D09A6A42F020029A620120E9
:10239000002283F824207047506820F470200968D8
:1023A000014351600020F3E70220704700280140FC
:1023B00000240140074AD36823F4E0631B041B0C8C
:1023C000000200F4E060184340F0BF6040F40030C9
:1023D000D060704700ED00E030B4164BDB68C3F30B
:1023E0000223C3F10704042C28BF04241D1D062D5D
:1023F00017D9033B012505FA04F4013C214099401B
:1024000005FA03F3013B1340194300280BDB0901D4
:10241000C9B200F1604000F5614080F8001330BCA3
:1024200070470023E6E700F00F000901C9B2024B34
:102430001954F4E700ED00E014ED00E0420900F06B
:102440001F00012303FA00F0014B43F822007047FC
:1024500000E100E00138B0F1807F0AD2064B5860FD
:10246000F021064A82F823100020986007221A60A3
:1024700070470120704700BF10E000E000ED00E071
:10248000042805D0054A136823F00403136070473D
:10249000024A136843F004031360704710E000E041
:1024A000704708B5FFF7FCFF08BD0000F0B583B02A
:1024B0000026344679E0002D00F0A980012D00D1DE
:1024C000CE68FF2B00F2B7808646FF2B00F2B68065
:1024D000A500DEF800200F27AF4022EA070206FA27
:1024E00005F52A43CEF800204A6812F0805F5BD0E1
:1024F000674A956945F001059561926902F001020C
:102500000192019AA208971C624D55F8275004F0D9
:1025100003074FEA870E0F2707FA0EF725EA07058C
:102520005D4FB84200F0908007F58067B84200F038
:102530008D8007F58067B84200F08A8007F58067D4
:10254000B84200F0878007F58067B84200F08480C9
:1025500007F58067B84275D0062707FA0EF73D43A6
:1025600002324C4F47F822504A6812F4803F75D02F
:102570004A4D2A681A432A604A6812F4003F73D011
:10258000464D6A681A436A604A6812F4801F71D027
:10259000424DAA681A43AA604A6812F4001F6FD01D
:1025A0003E4DEA681343EB6001340F2C6ED80122D4
:1025B000A2400B6813409A42F6D14D68122D30D0DC
:1025C0000BD8022D2AD07FF676AF032D2FD0112DF8
:1025D0007FF477AFCE68043673E7314FBD4216D033
:1025E0000CD9304FBD4212D007F58037BD420ED016
:1025F000A7F58017BD427FF464AF08E0A7F5801708
:10260000BD4204D007F58037BD427FF45AAF8D68D4
:102610007DB1012D08D04261082652E7CE68083608
:102620004FE7CE680C364CE70261082649E70026E2
:1026300047E7042645E700F1040E46E7A4F1080544
:10264000AD0046E7052788E7002786E7012784E7EE
:10265000022782E7032780E704277EE70F4D2A68D9
:1026600022EA03022A6087E70C4D6A6822EA030225
:102670006A6089E7094DAA6822EA0302AA608BE72B
:10268000064DEA6822EA0303EB608DE703B0F0BD74
:102690000010024000000140000801400004014019
:1026A00000002110000031108368194201D1002080
:1026B00070470120704712B9090401617047016138
:1026C0007047C3685940C1607047704710B50446F1
:1026D000074B1868074BA3FB00308009FFF7BAFED1
:1026E000002221464FF0FF30FFF776FE002010BD9C
:1026F000F0000020D34D621008B5074A136843F07C
:10270000100313600320FFF755FE0020FFF7DEFFE4
:10271000FFF7DBFF002008BD00200240024A1368DB
:1027200001331360704700BF34010020014B18686B
:10273000704700BF3401002030B583B00190FFF72F
:10274000F5FF0546019CB4F1FF3F00D00134FFF7CF
:10275000EDFF401BA042FAD303B030BD704700002C
:1027600030B482B00023019390F82430012B00F0A4
:102770008B800246012380F824304B68062B29D831
:102780000568686B03EB8303053B1F249C4020EA2C
:1027900004000C6804FA03F303436B630B68092B12
:1027A00038D91568E86803EB43031E3B07249C40B7
:1027B00020EA04008C6804FA03F30343EB600B681F
:1027C000103B012B34D90020002382F8243002B0C2
:1027D00030BC70470C2B0ED80568286B03EB8303C5
:1027E000233B1F249C4020EA04000C6804FA03F3F6
:1027F00003432B63D2E70568E86A03EB8303413B9D
:102800001F249C4020EA04000C6804FA03F30343ED
:10281000EB62C3E71568286903EB430307249C4078
:1028200020EA04008C6804FA03F303432B61C6E733
:1028300013681648834205D0936A43F020039362DD
:102840000120C1E7986810F4000F1BD1986840F48C
:10285000000098600B68102B01D00020B4E70C4BEF
:102860001B680C49A1FB03139B0C03EB830359006A
:10287000019102E0019B013B0193019B002BF9D1E7
:102880000020A1E700209FE70220A0E700240140EC
:10289000F000002083DE1B4330B583B0002301939A
:1028A00003689A6812F0010F2ED19A6842F0010273
:1028B0009A60174B1B68174AA2FB03239B0C0193DA
:1028C00002E0019B013B0193019B002BF9D10446DF
:1028D000FFF72CFF054623689B6813F0010F11D109
:1028E000FFF724FF401B0228F5D9A36A43F0100329
:1028F000A362E36A43F00103E362002384F8243017
:10290000012002E0002000E0002003B030BD00BF45
:10291000F000002083DE1B4390F82430012B02D10D
:1029200002231846704710B50446012380F824306E
:10293000FFF7B2FF034600285BD1A26A22F440727F
:1029400022F0010242F48072A26222682B498A427C
:1029500027D0A16A21F48011A162516811F4806F1F
:1029600005D0A16A21F4405141F48051A162A16ACD
:1029700011F4805F2BD0E16A21F00601E1620021B1
:1029800084F824106FF0020111602268916801F44C
:102990006021B1F5602F1DD0916841F480119160E4
:1029A0002AE0A1F58061496811F4702FD1D0A16AA5
:1029B00041F48011A1621249496811F4806FD6D0A8
:1029C000A16A21F4405141F48051A162CFE7002176
:1029D000E162D4E709498A4204D0916841F4A00138
:1029E000916009E0A1F58061496811F4702FD3D19D
:1029F000F3E7002284F82420184610BD0028014087
:102A00000024014038B503689A6812F0010F01D123
:102A1000002038BD04469A6822F001029A60FFF750
:102A200085FE054623689B6813F0010F0ED0FFF763
:102A30007DFE401B0228F5D9A36A43F01003A36270
:102A4000E36A43F00103E362012038BD002038BD92
:102A5000002800F08A8070B50446836A002B4DD0B0
:102A60002046FFF7CFFFA36A13F0100377D10028A9
:102A700075D1A26A22F4885222F0020242F00202C8
:102A8000A262656821683A4A91423DD0E2692A43D0
:102A9000E66842EA4602A568B5F5807F3ED0012D82
:102AA00039D06569012D3CD04D6825F469452B432B
:102AB0004B6021688D682F4B2B4013438B60A368BC
:102AC000B3F5807F3ED0012B3CD000232568E96A16
:102AD00021F470010B43EB6223689968264B0B408D
:102AE0009A4233D0A36A23F0120343F01003A36287
:102AF000E36A43F00103E362012070BDC36280F822
:102B00002430FFF72BFEABE7E269B2F5402FBED1D0
:102B10004FF40022BBE74FF48073C2E74FF4807399
:102B2000BFE736B9A569013D43EA453343F4006385
:102B3000BAE7A56A45F02005A562E56A45F00105FA
:102B4000E562B1E72369013B1B05BFE70023E362B0
:102B5000A36A23F0030343F00103A36270BDA36AD9
:102B600043F01003A362012070BD0120704700BF35
:102B7000003C0140FDF7E1FFFE0E1FFF2DE9F0478D
:102B800005460268136923F44053C1680B4313617F
:102B9000836802691343426913430168CA6822F4D7
:102BA000B05222F00C021343CB600268536923F445
:102BB000407381690B435361D0F80080594B9845AD
:102BC00057D0FFF7CBF800EB800000EB80006C687B
:102BD000A400B0FBF4F4544FA7FB043464092601AD
:102BE000FFF7BCF800EB800000EB80006C68A400ED
:102BF000B0FBF4FAFFF7B2F800EB800000EB8000C6
:102C00006C68A400B0FBF4F4A7FB043464094FF033
:102C1000640909FB14A424013234A7FB04346409B9
:102C200004F0F0043444FFF799F800EB800000EB67
:102C300080006E68B600B0FBF6F6FFF78FF800EB89
:102C4000800000EB80006B689B00B0FBF3F0A7FBFB
:102C50000030400909FB10694FEA091909F13209EE
:102C6000A7FB0937C7F343172744C8F80870BDE826
:102C7000F087FFF783F800EB800000EB80006C68C2
:102C8000A400B0FBF4F4284FA7FB04346409260128
:102C9000FFF774F800EB800000EB80006C68A40084
:102CA000B0FBF4FAFFF76AF800EB800000EB80005D
:102CB0006C68A400B0FBF4F4A7FB043464094FF083
:102CC000640909FB14A424013234A7FB0434640909
:102CD00004F0F0043444FFF751F800EB800000EBFF
:102CE00080006E68B600B0FBF6F6FFF747F800EB21
:102CF000800000EB80006B689B00B0FBF3F3A7FB48
:102D000003235B0909FB13694FEA091909F1320929
:102D1000A7FB0937C7F343172744C8F80870BDE875
:102D2000F08700BF003801401F85EB51704758B352
:102D300010B5044690F839300BB3242384F83930A9
:102D40002268D36823F40053D3602046FFF716FFB0
:102D50002268136923F4904313612268536923F0B6
:102D60002A0353612268D36843F40053D3600020E0
:102D7000E063202384F8393084F83A3010BD80F8BD
:102D80003830FFF7D3FFD8E70120704730B597B050
:102D90001F4BDA6942F48022DA61DA6902F4802298
:102DA0000092009A5A6942F001025A615B6903F08D
:102DB00001030193019B174D06954FF4E1330793EF
:102DC0000024089409940A9408230B930C940D94FE
:102DD00006A8FFF7ACFF6B6943F080036B614FF40B
:102DE0008063029301230493022303930323059337
:102DF00002A90948FFF75AFB084B1C60084A9A6071
:102E00005C6090221A6070221C3B5A6017B030BD83
:102E10000010024000480040000C01401C0002402D
:102E2000044800402DE9F04F89B07B4B9A6942F08D
:102E300004029A619A6902F004020192019A9A6965
:102E400042F008029A619A6902F008020292029A1C
:102E50009A6942F010029A619B6903F01003039390
:102E6000039B002305930693022707974FF0200A40
:102E70000DEB0A0444F810AD21466848FFF716FB35
:102E80004023049321466548FFF710FB80250495F5
:102E900021466248FFF70AFB4FF480630493214602
:102EA0005F48FFF703FB4FF40063049321465C483F
:102EB000FFF7FCFA4FF48056049621465848FFF776
:102EC000F5FA049621465748FFF7F0FA0497214691
:102ED0005448FFF7EBFA4FF00108CDF814804FF09B
:102EE0000409CDF8109021464C48FFF7DFFA102670
:102EF000049621464B48FFF7D9FACDF810A0214699
:102F00004848FFF7D3FA03230593CDF810802146F4
:102F10004348FFF7CBFACDF8108021464148FFF730
:102F2000C5FA4FF0080BCDF810B021463C48FFF72A
:102F3000BDFA049721463A48FFF7B8FA04962146AD
:102F40003748FFF7B3FACDF810A021463448FFF711
:102F5000ADFACDF8109021463148FFF7A7FACDF829
:102F600010B021462F48FFF7A1FACDF81090214666
:102F70002C48FFF79BFA05974023049321462848E5
:102F8000FFF794FA049521462548FFF78FFA4FF48E
:102F90008079CDF8109021462148FFF787FA0495F3
:102FA00021462048FFF782FACDF8108021461B48C1
:102FB000FFF77CFA049721461848FFF777FACDF817
:102FC000109021461748FFF771FA4FF400730493ED
:102FD00021461448FFF76AFA4FF4806304932146B0
:102FE0001048FFF763FA4FF40053049321460B484F
:102FF000FFF75CFA4FF48043049321460748FFF73C
:1030000055FA4FF40043049321460448FFF74EFA63
:1030100009B0BDE8F08F00BF00100240000C014075
:1030200000100140000801402DE9F04F99B0794BA4
:103030009A6942F400629A619A6902F4006201920C
:10304000019A9A6942F400529A619B6903F4005311
:103050000293029B704E714F3760002474604FF0F2
:103060002008C6F80880DFF8BCB1DBF80030DFF8D4
:10307000B8A1AAFB0323DB0AF36034617461B46175
:103080003046FFF701F810231693179416A930461F
:10309000FFF73BF960230F931094119408231293C8
:1030A000139414944FF40073159322460FA93046DD
:1030B000FFF73EF804220FA93046FFF739F808223F
:1030C0000FA93046FFF734F84FF4006308934FF42C
:1030D000806309930A94CDF82C800C940D940E947F
:1030E0000DEB08013046FFF7E4F84D4DDFF83C9159
:1030F000C5F800906C60C5F80880DBF80030AAFBCA
:10310000033A4FEADA23EB602C616C61AC6128462C
:10311000FEF7BAFFCDF858808023179316A92846EA
:10312000FFF7F3F8049418A9052341F8543D284605
:10313000FEF73BFF60230F93109411940823129322
:10314000139414944FF40073159322460FA9284644
:10315000FEF7EEFF04220FA92846FEF7E9FF08223A
:103160000FA92846FEF7E4FF4FF4006308934FF4DD
:10317000806309930A94CDF82C800C940D940E94DE
:103180000DEB08012846FFF794F8D9F8443023F4F2
:103190000043C9F844307B6C23F400437B64214630
:1031A0002846FFF743F804212846FFF73FF8082197
:1031B0002846FFF73BF821462846FFF768F8042128
:1031C0002846FFF764F808212846FFF760F82146F3
:1031D0003046FFF72BF804213046FFF727F8082187
:1031E0003046FFF723F821463046FFF750F8042118
:1031F0003046FFF74CF808213046FFF748F82B68B7
:1032000001221A633268136843F00103136019B096
:10321000BDE8F08F0010024000020020002C0140A9
:1032200090030020F0000020D34D621000340140D4
:103230002DE9F04186B0424EB36943F40073B361A7
:10324000B36903F400730093009B3E4C3E4B236034
:103250004FF48073A3600025E56065614FF440235F
:10326000E36165604FF00508C4F810802046FFF761
:10327000EFFB364A536843F48023536006A94FF4AA
:10328000C02341F8043D2046FFF768F8012304936A
:103290000E220292039302A92046FFF761FA0295DB
:1032A0000227039702A92046FFF75AFA04970B2733
:1032B00002970323039302A92046FFF751FA0C2338
:1032C00002930423039302A92046FFF749FA072338
:1032D000049310230293CDF80C8002A92046FFF737
:1032E0003FFA2268936843F4000343F480739360C9
:1032F000936843F001039360736943F001037361C2
:10330000736903F001030193019B114B1D60C3F826
:103310000480104A9A60104ADA6040F6A2221A60CD
:103320001A6842F001021A602A4629463846FFF719
:1033300053F83846FFF782F806B0BDE8F08100BFC9
:1033400000100240C802002000240140000001409B
:10335000080002404C2401403C030020F0B585B039
:10336000284B9A6942F480629A619B6903F48063F6
:103370000093009B244C254B23604FF48073A36083
:103380000023E36063614FF46022E261636005261D
:1033900026612046FFF75CFB012303930F22019275
:1033A000029301A92046FFF7DBF90D2301930225C3
:1033B000029501A92046FFF7D3F903950A2301934B
:1033C0000327029701A92046FFF7CAF901950423B4
:1033D00002930DEB03012046FFF7C2F90723039385
:1033E0000197029601A92046FFF7BAF923689A6867
:1033F00042F480729A609A6842F001029A6005B0C5
:10340000F0BD00BF001002407C01002000280140F8
:1034100010B5154B1C682046FDF79AFF00220023CB
:10342000FEF76EFA28B16442132CCCBF00240124AD
:1034300003E0132CCCBF002401249CB100240B4BCF
:103440001C700B4B1C7005E00A4B1C706420FFF7CE
:1034500073F90134072CF7DD002220210648FFF71D
:103460002AF9FEE710BD00BF800400201E010020E5
:10347000240100201D0100200008014008B5FEF7CE
:1034800067FC084BA3FB00308009FEF7E3FF042034
:10349000FEF7F6FF002211464FF0FF30FEF79CFFCB
:1034A00008BD00BFD34D62102DE9F04F2DED028B0A
:1034B00085B0FFF721F9A34CA36943F00103A36191
:1034C000A36903F001030393039B0320FEF772FF3C
:1034D000002211466FF00B00FEF77EFF002211461E
:1034E0006FF00A00FEF778FF002211466FF0090026
:1034F000FEF772FF002211466FF00400FEF76CFF2A
:10350000002211466FF00300FEF766FF002211460D
:103510006FF00100FEF760FF002211464FF0FF3010
:10352000FEF75AFFFFF7AAFF636923F00103636107
:10353000FFF778FCFFF778FDFFF77AFEFFF70EFF45
:10354000FFF724FC012220217F48FFF7B4F87F48D1
:10355000FFF7E2F97E48FFF7DFF97E4B032283F89D
:103560006020012283F861207B4803607B4AC260AF
:103570007B4A42607B4A82607B4C23607B4BE360EA
:103580007B4B63607B4BA36001F00CF8204601F09D
:1035900009F8082405E0784B1C706420FFF7CCF88C
:1035A000013C002CF7DA0026734B1E700122042127
:1035B0007248FFF780F84FF07E52714B1A604FF05F
:1035C0007C52704B1A60704B1B8A9BB207EE903A8C
:1035D000F8EE678A44E040F6FF756B4B5B8A9BB25E
:1035E000B3F5805F04DA684B5A8A5C8AA4B201E0C2
:1035F00040F6FF74A5F500673846FDF7A9FE0022E6
:103600000023FEF77DF9002837D1C72FCCBF002754
:10361000012797B1A4F500652846FDF799FE002221
:103620000023FEF76DF900282ED0C4F50064C72CE6
:10363000CCBF0024012404B1013602214248FFF727
:1036400033F850B10022514B1A7002213E48FFF767
:103650002BF80028F9D1FFF7DBFE0520FFF76CF807
:10366000132E16DC484BDB899BB2B3F5805FB2DAD0
:10367000454BDA89DD89ADB2AFE7C5F50067C72FE5
:10368000CCBF00270127C4E7C72DCCBF00240124ED
:10369000D1E70424002C06DB374B1C706420FFF7B5
:1036A0004BF8013CF6E74FF0000A334B83F800A0DB
:1036B0000122364B1A70D14662E240F6FF746DE289
:1036C00040F6FF7577E2C4F50064C82CD4BF00242F
:1036D000012480E24FF47A732D4A1360A5F500644B
:1036E0002046FDF735FE00220023FEF709F908BB4E
:1036F000C82CD4BF00250125002D00F0D280640025
:10370000B4F5805F4ADA14F5805F40F3C88007EEB5
:10371000904AF8EEE77ADFED1F6A87EEA67AFDEEB3
:10372000C77A17EE903A3BE01B4BD5E70022184BC7
:103730001A60D3E7C5F50065C82DD4BF0025012563
:10374000DAE700BF0010024000080140C802002074
:103750007C010020840000208C040020F403002061
:103760005C040020180400206C04002034040020B5
:103770002C040020E00300201D010020000C01406B
:10378000D4030020D80300203C03002024010020A3
:10379000880400203D0A834018FCFFFF4FF47A7331
:1037A000C14A1360C14AD3899BB2B3F5FA6F94BF83
:1037B00000230123BE490B70538A9BB2B3F5FA6F05
:1037C00094BF00230123BB4A13700022BA4B1A6036
:1037D000DFF82483D8F80000FDF7BAFDA8A3D3E9E9
:1037E0000023FDF71BFE04460D46B44B1868FDF799
:1037F000AFFDA5A3D3E90023FDF710FE06460F4653
:1038000002460B4620462946FDF756FCFEF7A0F877
:10381000C8F80000DFF8CCB2DBF80000FDF798FD37
:1038200097A3D3E90023FDF7F9FDCDE900019E4BF5
:103830001868FDF78DFD94A3D3E90023FDF7EEFD95
:1038400004460D4602460B46DDE90001FDF734FC57
:10385000FEF77EF8CBF800004846FDF779FD88A317
:10386000D3E90023FDF7DAFD02460B463046394620
:10387000FDF722FC06460F460022914BFEF75EF84C
:1038800098B983A3D3E9002330463946FEF738F8C8
:1038900088BB30463946FEF75BF8064607E0894BA1
:1038A0007EE70022804B1A607CE74FF47A76504620
:1038B000FDF74EFD72A3D3E90023FDF7AFFD0246ED
:1038C0000B4620462946FDF7F7FB04460D4600222D
:1038D0007B4BFEF733F880B96DA3D3E90023204674
:1038E0002946FEF70DF800285BD120462946FEF751
:1038F0002FF8044603E0734ED9E74FF47A740AF1C7
:1039000032039C4214DAAAF1320A544510DD09F15F
:1039100032039E420CDAA9F132039E4208DD664B67
:103920001B68042B04D87342674A1360674B1C6002
:10393000674B1A68674BA3FB0213DB0803EB830397
:1039400003EB83039A422ED002216348FEF7ACFEBC
:1039500050B10022614B1A7002215F48FEF7A4FEAD
:103960000028F9D1FFF754FD5D4B93ED008ADFEDA0
:10397000647AB4EEE78AF1EE10FA40F1C780594B51
:103980001D682846FDF7E4FC00220023FDF7B8FF80
:10399000002840F0B780132D00F3B880FFF738FD02
:1039A000CEE0484CABE718EE900AFDF7E3FC3AA3F3
:1039B000D3E90023FDF732FD804689463B4D288A36
:1039C00080B207EE900AF8EE677A17EE900AFDF7DC
:1039D000D1FC33A3D3E90023FDF720FD02460B46BB
:1039E00040464946FDF768FBFDF7DAFF08EE900A0E
:1039F0009FED3D8A38EEC88ADFED3C7A28EE278AB3
:103A0000DFED3B7A38EE278AE98909B2002000F021
:103A100035FB698A09B2012000F030FB31B2022087
:103A200000F02CFB21B2032000F028FBA98909B289
:103A3000042000F023FB2A4BD3ED007A9FED2D7A72
:103A400067EE877AFDEEE77ACDED007ABDF90010DA
:103A5000052000F013FBFDEEE87ACDED007ABDF90C
:103A60000010062000F00AFBFDEEC87ACDED007ACA
:103A7000BDF90010072000F001FB00F005FB63E733
:103A8000666666666666EE3F9A9999999999A93F26
:103A90000000000000408FC0AE47E17A14AEEF3F57
:103AA0007B14AE47E17A843F640400203C0300208D
:103AB00084040020580400206400002088040020B2
:103AC00000408F4018FCFFFF300100202C01002037
:103AD000D00300201F85EB51000801402401002085
:103AE000680000208004002000E0CE44083748BE73
:103AF00033330F420000C842680400200000FC413C
:103B0000D6A3F2416D42132D7FF748AF5FED057AE2
:103B1000B4EEE78AF1EE10FA0DD55FED077AB4EE58
:103B2000E78AF1EE10FA06DD05223F4B1A700622F5
:103B30003E4B1A7004E000233B4A13703B4A13705B
:103B40002046FDF705FC00220023FDF7D9FE0028E2
:103B50005AD1322C0ADC3046FDF7FAFB0022002352
:103B6000FDF7CEFE002853D1322E54DD0022304B1B
:103B70001A602F4B1A682F4B9A4251D8B146A24671
:103B80000520FEF7D9FD2C4BDB899BB2B3F5805F96
:103B9000BFF693AD284BDA89DC89A4B2274B1C60B1
:103BA000254B5B8A9BB2B3F5805FBFF689AD224B94
:103BB0005A8A5D8AADB2A4F500663046FDF7C8FBAF
:103BC00000220023FDF79CFE00287FF47CADC82E68
:103BD000D4BF00240124002C3FF4A8AD7600B6F534
:103BE000805FBFF677AD16F5805F7FF79DAD07EE7E
:103BF000906AF8EEE77ADFED126A87EEA67AFDEEBC
:103C0000C77A17EE903A67E56342322BAEDCA2E743
:103C10007342322BAADC064A136801331360A8E70B
:103C2000FFF7F6FBAAE700BF1D0100201E010020E0
:103C3000D0030020803801003C03002088040020CD
:103C40003D0A83400000000038B50222A64B5A60AE
:103C5000A64B1B68B3F57A7F56DBA54B1C68A54BBA
:103C6000A3FB04239B094FF47A7202FB1343CBB9E5
:103C7000A14AD2ED007A9FEDA17A27EE877AA04B78
:103C80009B899BB207EE903AF8EE677ADFED9D6A6A
:103C900067EEA67ADFED9C6A67EEA67A77EE277A62
:103CA000C2ED007A964B588980B2984B1D68401B34
:103CB000FDF74EFB8AA3D3E90023FDF7AFFB0022FB
:103CC0000023FDF71DFE002859D18D4B588980B285
:103CD000401BFDF73DFB82A3D3E90023FDF79EFBCC
:103CE00000228B4BFDF72AFE002859D1894B1B6817
:103CF000052B55D8884B1B78002B51D0874A536C25
:103D000043F40043536450E00133784A13607C4A23
:103D100093888349086810FA83F303EBD3735B102D
:103D20000B60D3887F49086810FA83F303EBD373E1
:103D30005B100B6013887C49086810FA83F303EB6F
:103D4000D3735B100B6053887849086810FA83F3CB
:103D500003EBD3735B100B6053896C49086810FA4E
:103D600083F303EBD3735B100B601389704A116804
:103D700011FA83F303EBD3735B10136038BD604B10
:103D8000588980B2401BFDF7E3FA55A3D3E900231D
:103D9000FDF744FB0022674BFDF7B2FD0028A5D0DC
:103DA0005E4A536C23F400435364554B188980B228
:103DB0005F4B1D68401BFDF7CBFA49A3D3E90023F5
:103DC000FDF72CFB00220023FDF79AFDE0B94C4BD8
:103DD000188980B2401BFDF7BBFA41A3D3E9002349
:103DE000FDF71CFB00224A4BFDF7A8FDE8B9494B43
:103DF0001B68052B19D8484B1B78B3B14E4A536C3E
:103E000043F40043536415E03D4B188980B2401BD6
:103E1000FDF79EFA32A3D3E90023FDF7FFFA002253
:103E2000444BFDF76DFD0028E1D0434A536C23F469
:103E30000043536401342E4B1C60404B1878A8B1EA
:103E40003F4BA3FB04231B0B3E4A12780132B3FB0A
:103E5000F2F102FB11334BB9B4FBF0F300FB134456
:103E60004CB910213848FEF72CFC04E00022102148
:103E70003548FEF720FC354B1B7803B138BD0122D5
:103E8000324B1A70324B9A6812F0200F0CBF01208F
:103E900000209A6812F0400F0CBF012100219B689E
:103EA00013F0800F0CBF012200222A4B18705970AA
:103EB0009A70294A12685A60284B186800F07AF9FB
:103EC000274B19685A689B6801F57A7040F2C674EE
:103ED000A04247DC092853DD81B245E0AFF3008002
:103EE0007B14AE47E17A943F000002402801002095
:103EF00020010020D34D621068000020A4707D3F97
:103F00003C030020B29CD13C0AD7233C6C0000202B
:103F100000002E40640000202401002000340140F5
:103F200074000020780000207C0000208000002029
:103F30007000002000002EC0002C01401D01002058
:103F40005917B7D11E010020000801401C010020B4
:103F5000000C01405C0400202C0100203C470008BC
:103F60001804002040F2C6713C48416302F57A71A2
:103F700040F2C670814205DC092911DD8AB203E0F6
:103F80000A21F1E740F2C67234498A6303F57A7276
:103F900040F2C6718A4205DC092A33DD93B203E0A0
:103FA0000A22F1E740F2C6732C4AD3632C4B9A687D
:103FB00012F4806F0CBF012000209A6812F4006F89
:103FC0000CBF012100219B6813F4805F0CBF01220C
:103FD0000022244B187059709A70234A12685A6054
:103FE000224B186800F0E6F8214B19685A689B6864
:103FF00001F57A7040F2C674A04205DC092811DD93
:1040000081B203E00A23CFE740F2C6711948416349
:1040100002F57A7140F2C670814205DC092911DD92
:104020008AB203E00A21F1E740F2C67211498A63BD
:1040300003F57A7240F2C6718A4205DC092A0BDD6B
:1040400093B203E00A22F1E740F2C673094AD36350
:104050000022094B1A7011E70A23F7E700340140E8
:10406000001001402C0400203001002040470008CF
:10407000E0030020002C01401C010020014B23F82C
:104080001010704700050020F0B587B01A4F642269
:1040900000213846FCF7C6F818490A88B1F802E052
:1040A000888800B2CC8824B20D892DB24E8936B2F0
:1040B0008B891BB2C98909B20591049303960295B5
:1040C000019400900FFA8EF312B20D493846FCF7B6
:1040D00019F90C4B5B686BB90A4C236823F0010398
:1040E00023603846FCF74CF96060E760236843F0D2
:1040F0000103236007B0F0BD9C04002000050020F0
:10410000444700081C0002407047FEE7FEE7FEE758
:10411000FEE770477047704708B5FEF7FFFAFEF7F5
:10412000C0F908BD10B588420CDD401AB0FBF2F4AE
:104130009C420CD3DCB2013CE4B24FF00043029A43
:10414000136002E00024029B1C60204610BDE4B214
:1041500002FB14010023C8074908FDF771FC029B0C
:104160001860F2E7D0B4431C32F9133032F9104032
:104170001A1BD717A1FB022301FB0733D00F40EA1C
:104180004300A4B214FA80F000B2D0BC7047CB0F49
:10419000B3EBD07F08D090FBF1F301FB13032BB9F5
:1041A00090FBF1F0184470470023F9E74FF0FF331C
:1041B000F6E700002DE9F04F87B00668C46847684D
:1041C000D0F8089039788B00DBB278784200D2B210
:1041D0001344DBB2BA7813445FFA83FBD7F804A028
:1041E000BAF1000F31DB257F637F41404A406A40CE
:1041F0005A40A37F9A422ED094F919302376B54BBA
:104200005B4493F90A22D3B2A17E5B1A5BB2012B05
:104210001ED013F1050F1BD0FF236376A276B4F9ED
:104220001430E3819AB2E18A521A2282E3824FF07B
:104230000108B6F95E30984521DC94F9193094F9FB
:104240001820934213D000211AE0CAF1000ACAE7ED
:1042500001236376E2E7B4F91230B6F95E80434594
:1042600000DA984608F101080FFA88F8E1E73168AA
:1042700003FB01F3B4F90E1093FBF1F100E0002110
:104280007368C3F16405626803FB01F302FB053543
:10429000914B83FB0523ED17D5EB63157CD42A46A0
:1042A000F3689A427ADB0123E377B4F91030002BEC
:1042B0007ADBB6F95A108B427ADB012384F820307E
:1042C00094F91B1096F86030002B79D14FF0FF3332
:1042D000E3768B4203D011B92160C9F810105BBBA3
:1042E00094F9191001296DD03B789B00DBB27878E6
:1042F0004000C0B20344DBB2B8780344754850FABA
:1043000083F393F80A02013040B2C8EB081E4FEA6B
:104310008E03B4F90EE093FBFEF3C0EB00104FEAFE
:10432000800E01FB03E1C9F8101096F8613013B15B
:1043300033699A424BDC216096F86030022B00F022
:104340008880032B00F0A480012B63D094F91930EE
:10435000002BC0F2BC80002BD4BF002201227B685E
:10436000002BC0F2C180002BD4BF0020012096F8A2
:10437000601029B171698A4502DD904200F0B78072
:10438000544A5A4492F90A02052800F3C6800028CC
:1043900080F2C4800020C1E06A4281E7B3689A429B
:1043A00083DC0023E37780E79BB25B421BB280E7AC
:1043B000B6F95C108B4283DC002384F820307FE761
:1043C000002385E7434B5B4493F90A029DE7B169FB
:1043D000F26905AB00930A23521A5046FFF7A2FE7A
:1043E00006F144020599FFF7BDFE94F919309BB21E
:1043F00010FB03F0D9F8103003FA80F34FF4B471D6
:1044000002931846FFF7C3FE344B029A03FB0020C9
:10441000206091E7206805AB009306233C22002131
:10442000FFF780FE0390059B2A4A02931946FFF787
:1044300099FE2081274A0E3202990398FFF792FED7
:104440006081244A1C3202990398FFF78BFEA081F9
:104450007CE7206805AB009324230A220021FFF7A4
:1044600061FE0390059B1E4A02931946FFF77AFEF0
:1044700020811B4A4A3202990398FFF773FE60813C
:10448000174A943202990398FFF76CFEA0815DE70A
:10449000206805AB009324230A220021FFF742FE87
:1044A0000390059B0F4A02931946FFF75BFE20819C
:1044B0000C4A4A3202990398FFF754FE6081094A78
:1044C000943202990398FFF74DFEA0813EE74FF02A
:1044D000FF3244E7704700081F85EB5198FEFFFF4D
:1044E0009A470008784800084FF0FF303FE7E27F26
:1044F000002A3FF445AF94F82020002A7FF440AF13
:10450000B4F9081001FB03F1B4F90A2002FB03F22D
:10451000B4F90C0000FB03F31AE0052000EB4000A7
:104520001E4E00F1F00206EB4202B2F9061001FB4A
:1045300003F100F1F10206EB4202B2F9062002FBA0
:1045400003F2F23006EB4000B0F9060000FB03F383
:10455000134880FB01E6C917C1EBA611C9F800108A
:1045600080FB0261D217C2EBA112C9F804203A788D
:1045700022777A786277BA78A277A4F81280A4F8C2
:104580001480656080FB0312DB17C3EBA213C9F82C
:104590000830C9F80C5007B0BDE8F08F704700082C
:1045A000D34D62100268C368FF21D976B2F95E105C
:1045B0005982B2F95E10D982B2F95E20DA81704771
:1045C00082B00023019300932C4A136843F0010347
:1045D00013602A4B1B6803F002030093019B013315
:1045E0000193009B23B9019A4FF6FF739A42F0D1D1
:1045F000224B1B6813F0020F06D001230093009B8F
:10460000012B04D002B0704700230093F7E71B4B47
:104610005A685A605A6822F460525A605A685A605E
:104620005A6822F4E0625A605A6842F480625A6022
:104630005A6822F0604222F47C125A605A6842F0B2
:10464000005242F480225A601A6842F080721A6066
:104650000A4B1B6813F0007FFAD0084B5A6822F00F
:1046600003025A605A6842F002025A60034B5B68C8
:1046700003F00C03082BF9D1C4E700BF001002407F
:1046800008B5FFF79DFF08BD10B5164CD4F888306B
:1046900043F47003C4F88830134B1A6842F00102E7
:1046A0001A605968114A0A405A601A6822F08472E6
:1046B00022F480321A601A6822F480221A605A6842
:1046C00022F0684222F47F025A60196B084A0A40BD
:1046D0001A634FF41F029A60FFF7D2FF4FF0006396
:1046E000A36010BD00ED00E0001002400C00FFE8E8
:1046F00000FFFEFE002103E00A4B5B5843500431EB
:1047000009480A4B42189A42F6D3094A02E00023AC
:1047100042F8043B074B9A42F9D3FFF7B5FFFEF787
:10472000C3FE7047EC49000800000020F4000020A0
:10473000F400002014050020FEE700008C04002097
:104740006C040020313A256920323A256920333A39
:10475000256920343A256920353A256920363A25DD
:104760006920373A256920383A25690D0A0000008A
:10477000E803E803E80318FC18FC18FCE80318FC3D
:1047800018FCE803E803E80318FC18FCE80318FC2D
:1047900018FC18FCE803E803E803F4018302FE02B6
:1047A0006203AC03D903E803D903AC036203FE023E
:1047B0008302F4015601AE00000052FFAAFE0CFE77
:1047C0007DFD02FD9EFC54FC27FC18FC27FC54FCDC
:1047D0009EFC02FD7DFD0CFEAAFE52FF0000AE0015
:1047E0005601F40118FC27FC54FC9EFC02FD7DFDE3
:1047F0000CFEAAFE52FF0000AE005601F401830237
:10480000FE026203AC03D903E803D903AC036203DD
:10481000FE028302F4015601AE00000052FFAAFE20
:104820000CFE7DFD02FD9EFC54FC27FC18FCF401EF
:104830005601AE00000052FFAAFE0CFE7DFD02FDF7
:104840009EFC54FC27FC18FC27FC54FC9EFC02FD3B
:104850007DFD0CFEAAFE52FF0000AE005601F401E1
:104860008302FE026203AC03D903E803D903AC035D
:104870006203FE028302F4012D03B103E803E403A3
:10488000C2039E0390039E03C203E403E803B10343
:104890002D0357023F010000C1FEA9FDD3FC4FFCD0
:1048A00018FC1CFC3EFC62FC70FC62FC3EFC1CFC28
:1048B00018FC4FFCD3FCA9FDC1FE00003F015702CC
:1048C0002D0370FC62FC3EFC1CFC18FC4FFCD3FC6E
:1048D000A9FDC1FE00003F0157022D03B103E8030B
:1048E000E403C2039E0390039E03C203E403E803B0
:1048F000B1032D0357023F010000C1FEA9FDD3FC07
:104900004FFC18FC1CFC3EFC62FC70FC2D035702A3
:104910003F010000C1FEA9FDD3FC4FFC18FC1CFCAC
:104920003EFC62FC70FC62FC3EFC1CFC18FC4FFC74
:10493000D3FCA9FDC1FE00003F0157022D03B103C6
:10494000E803E403C2039E0390039E03C203E4034F
:10495000E803B1032D03E80318FC0000E80300009E
:1049600018FC0000E80318FC18FCE803000018FC21
:104970000000E803000018FCE80300050304010040
:104980000200000043000000232D302B2000000017
:10499000686C4C006566674546470000303132332D
:1049A000343536373839414243444546000000002B
:1049B0003031323334353637383961626364656695
:1049C00000000000F8B500BFF8BC08BC9E46704768
:0C49D000F8B500BFF8BC08BC9E4670475C
:0849DC0094D0FF7F01000000F0
:0449E400ED010008D9
:0449E800C5010008FD
:1049EC000400002000000000000000000000000097
:1049FC0000000000000000000000000000000000AB
:104A0C0000000000844900080000000000000000C5
:104A1C00000000000000000000000000000000008A
:104A2C00000000000000000000000000000000007A
:104A3C00000000000000000000000000000000006A
:104A4C00000000006400000000001042D0070000CD
:104A5C00D0070000D0070000D0070000D0070000EE
:104A6C00D0070000AB2900000A0000000F00000076
:104A7C001E00000090010000460000000000000035
:104A8C0064000000C80000002C0100009001000030
:104A9C00F401000058020000BC02000020030000DA
:104AAC0084030000E8030000000000000000000088
:104ABC00000002000300050009001000190032007C
:104ACC001400DC05030100000000000001020304D7
:044ADC0000A24A04E6
:04000005080046F5B4
:00000001FF
